{
  "address": "0x206F9483FBeE5c6b7a7554D652BcD853CF3272F8",
  "abi": [
    {
      "inputs": [],
      "stateMutability": "nonpayable",
      "type": "constructor"
    },
    {
      "anonymous": false,
      "inputs": [
        {
          "indexed": true,
          "internalType": "uint24",
          "name": "fee",
          "type": "uint24"
        },
        {
          "indexed": true,
          "internalType": "int24",
          "name": "tickSpacing",
          "type": "int24"
        }
      ],
      "name": "FeeAmountEnabled",
      "type": "event"
    },
    {
      "anonymous": false,
      "inputs": [
        {
          "indexed": true,
          "internalType": "address",
          "name": "oldOwner",
          "type": "address"
        },
        {
          "indexed": true,
          "internalType": "address",
          "name": "newOwner",
          "type": "address"
        }
      ],
      "name": "OwnerChanged",
      "type": "event"
    },
    {
      "anonymous": false,
      "inputs": [
        {
          "indexed": true,
          "internalType": "address",
          "name": "token0",
          "type": "address"
        },
        {
          "indexed": true,
          "internalType": "address",
          "name": "token1",
          "type": "address"
        },
        {
          "indexed": true,
          "internalType": "uint24",
          "name": "fee",
          "type": "uint24"
        },
        {
          "indexed": false,
          "internalType": "int24",
          "name": "tickSpacing",
          "type": "int24"
        },
        {
          "indexed": false,
          "internalType": "address",
          "name": "pool",
          "type": "address"
        }
      ],
      "name": "PoolCreated",
      "type": "event"
    },
    {
      "inputs": [
        {
          "internalType": "address",
          "name": "tokenA",
          "type": "address"
        },
        {
          "internalType": "address",
          "name": "tokenB",
          "type": "address"
        },
        {
          "internalType": "uint24",
          "name": "fee",
          "type": "uint24"
        }
      ],
      "name": "createPool",
      "outputs": [
        {
          "internalType": "address",
          "name": "pool",
          "type": "address"
        }
      ],
      "stateMutability": "nonpayable",
      "type": "function"
    },
    {
      "inputs": [
        {
          "internalType": "uint24",
          "name": "fee",
          "type": "uint24"
        },
        {
          "internalType": "int24",
          "name": "tickSpacing",
          "type": "int24"
        }
      ],
      "name": "enableFeeAmount",
      "outputs": [],
      "stateMutability": "nonpayable",
      "type": "function"
    },
    {
      "inputs": [
        {
          "internalType": "uint24",
          "name": "",
          "type": "uint24"
        }
      ],
      "name": "feeAmountTickSpacing",
      "outputs": [
        {
          "internalType": "int24",
          "name": "",
          "type": "int24"
        }
      ],
      "stateMutability": "view",
      "type": "function"
    },
    {
      "inputs": [
        {
          "internalType": "address",
          "name": "",
          "type": "address"
        },
        {
          "internalType": "address",
          "name": "",
          "type": "address"
        },
        {
          "internalType": "uint24",
          "name": "",
          "type": "uint24"
        }
      ],
      "name": "getPool",
      "outputs": [
        {
          "internalType": "address",
          "name": "",
          "type": "address"
        }
      ],
      "stateMutability": "view",
      "type": "function"
    },
    {
      "inputs": [],
      "name": "owner",
      "outputs": [
        {
          "internalType": "address",
          "name": "",
          "type": "address"
        }
      ],
      "stateMutability": "view",
      "type": "function"
    },
    {
      "inputs": [],
      "name": "parameters",
      "outputs": [
        {
          "internalType": "address",
          "name": "factory",
          "type": "address"
        },
        {
          "internalType": "address",
          "name": "token0",
          "type": "address"
        },
        {
          "internalType": "address",
          "name": "token1",
          "type": "address"
        },
        {
          "internalType": "uint24",
          "name": "fee",
          "type": "uint24"
        },
        {
          "internalType": "int24",
          "name": "tickSpacing",
          "type": "int24"
        }
      ],
      "stateMutability": "view",
      "type": "function"
    },
    {
      "inputs": [
        {
          "internalType": "address",
          "name": "_owner",
          "type": "address"
        }
      ],
      "name": "setOwner",
      "outputs": [],
      "stateMutability": "nonpayable",
      "type": "function"
    }
  ],
  "transactionHash": "0x3ca55bf98cd68f851e46bf03f63a8f7e0216a73630aac66baf1e032b7aa9b43d",
  "args": [],
  "numDeployments": 1,
  "solcInputHash": "94d2c1a03f08acb669404d8bd7e2aafd",
  "bytecode": "0x60a060405234801561001057600080fd5b5030608052600380546001600160a01b031916339081179091556040516000907fb532073b38c83145e3e5135377a08bf9aab55bc0fd7c1179cd4fb995d2a5159c908290a36101f4600081815260046020527ffb8cf1d12598d1a039dd1d106665851a96aadf67d0d9ed76fceea282119208b7805462ffffff1916600a90811790915560405190929160008051602061616d83398151915291a3610bb8600081815260046020527f72dffa9b822156d9cf4b0090fa0b656bcb9cc2b2c60eb6acfc20a34f54b31743805462ffffff1916603c90811790915560405190929160008051602061616d83398151915291a3612710600081815260046020527f8cc740d51daa94ff54f33bd779c2d20149f524c340519b49181be5a08615f829805462ffffff191660c890811790915560405190929160008051602061616d83398151915291a3608051615ffe61016f60003960006104ab0152615ffe6000f3fe608060405234801561001057600080fd5b506004361061007d5760003560e01c8063890357301161005b57806389035730146101245780638a7c195f146101a05780638da5cb5b146101b3578063a1671295146101c657600080fd5b806313af4035146100825780631698ee821461009757806322afcccb146100ee575b600080fd5b610095610090366004610670565b6101d9565b005b6100d16100a53660046106a5565b60056020908152600093845260408085208252928452828420905282529020546001600160a01b031681565b6040516001600160a01b0390911681526020015b60405180910390f35b6101116100fc3660046106e8565b60046020526000908152604090205460020b81565b60405160029190910b81526020016100e5565b6000546001546002805461015f936001600160a01b03908116938116929082169162ffffff600160a01b82041691600160b81b909104900b85565b604080516001600160a01b0396871681529486166020860152929094169183019190915262ffffff16606082015260029190910b608082015260a0016100e5565b6100956101ae366004610703565b61024c565b6003546100d1906001600160a01b031681565b6100d16101d43660046106a5565b610310565b6003546001600160a01b031633146101f057600080fd5b6003546040516001600160a01b038084169216907fb532073b38c83145e3e5135377a08bf9aab55bc0fd7c1179cd4fb995d2a5159c90600090a3600380546001600160a01b0319166001600160a01b0392909216919091179055565b6003546001600160a01b0316331461026357600080fd5b620f42408262ffffff161061027757600080fd5b60008160020b13801561028e57506140008160020b125b61029757600080fd5b62ffffff821660009081526004602052604090205460020b156102b957600080fd5b62ffffff828116600081815260046020526040808220805462ffffff1916948616949094179093559151600284900b927fc66a3fdf07232cdd185febcc6579d408c241b47ae2f9907d84be655141eeaecc91a35050565b600061031a6104a0565b826001600160a01b0316846001600160a01b0316141561033957600080fd5b600080846001600160a01b0316866001600160a01b03161061035c57848661035f565b85855b90925090506001600160a01b03821661037757600080fd5b62ffffff841660009081526004602052604090205460020b8061039957600080fd5b6001600160a01b0383811660009081526005602090815260408083208685168452825280832062ffffff8a16845290915290205416156103d857600080fd5b6103e530848488856104d7565b6001600160a01b03848116600081815260056020818152604080842089871680865290835281852062ffffff8e168087529084528286208054988a166001600160a01b0319998a1681179091558287529484528286208787528452828620818752845294829020805490971684179096558051600289900b81529182019290925294985090937f783cca1c0412dd0d695e784568c96da2e9c22ff989357a2e8b1d9b2b4e6b7118910160405180910390a45050509392505050565b306001600160a01b037f000000000000000000000000000000000000000000000000000000000000000016146104d557600080fd5b565b6040805160a0810182526001600160a01b03878116808352878216602080850182905292881684860181905262ffffff888116606080880182905260028a810b6080998a0152600080546001600160a01b0319908116909817815560018054909816871790975580547fffffffffffffffffff0000000000000000000000000000000000000000000000168517600160a01b8402177fffffffffffff000000ffffffffffffffffffffffffffffffffffffffffffffff16600160b81b948c169490940293909317909255875195860193909352958401529382019390935201604051602081830303815290604052805190602001206040516105d890610647565b8190604051809103906000f59050801580156105f8573d6000803e3d6000fd5b50600080546001600160a01b0319908116909155600180549091169055600280547fffffffffffff00000000000000000000000000000000000000000000000000001690559695505050505050565b6158b18061074183390190565b80356001600160a01b038116811461066b57600080fd5b919050565b60006020828403121561068257600080fd5b61068b82610654565b9392505050565b803562ffffff8116811461066b57600080fd5b6000806000606084860312156106ba57600080fd5b6106c384610654565b92506106d160208501610654565b91506106df60408501610692565b90509250925092565b6000602082840312156106fa57600080fd5b61068b82610692565b6000806040838503121561071657600080fd5b61071f83610692565b915060208301358060020b811461073557600080fd5b80915050925092905056fe6101606040523480156200001257600080fd5b503060805260408051630890357360e41b81529051600091339163890357309160048082019260a0929091908290030181865afa15801562000058573d6000803e3d6000fd5b505050506040513d601f19601f820116820180604052508101906200007e919062000186565b62ffffff91909116610100526001600160a01b0391821660e05291811660c0529190911660a052600281900b610120529050620000c781620000db602090811b6200262e17901c565b6001600160801b0316610140525062000220565b60008082600281900b620d89e71981620000f957620000f96200020a565b05029050600083600281900b620d89e8816200011957620001196200020a565b0502905060008460020b83830360020b816200013957620001396200020a565b0560010190508062ffffff166001600160801b038016816200015f576200015f6200020a565b0495945050505050565b80516001600160a01b03811681146200018157600080fd5b919050565b600080600080600060a086880312156200019f57600080fd5b620001aa8662000169565b9450620001ba6020870162000169565b9350620001ca6040870162000169565b9250606086015162ffffff81168114620001e357600080fd5b8092505060808601518060020b8114620001fc57600080fd5b809150509295509295909350565b634e487b7160e01b600052601260045260246000fd5b60805160a05160c05160e0516101005161012051610140516155aa6200030760003960008181610485015281816142d6015261430d01526000818161056e015281816109ee0152818161434101526143730152600081816105cf01528181610aec01528181611717015261174e0152600081816105a801528181611104015281816117d101528181611bf801528181612092015261366a0152600081816101b8015281816111da015281816117a001528181611b920152818161200c015261355401526000818161054701528181611cf20152611ec5015260006126bb01526155aa6000f3fe608060405234801561001057600080fd5b50600436106101ae5760003560e01c806370cf754a116100ee578063c45a015511610097578063ddca3f4311610071578063ddca3f43146105ca578063f305839914610605578063f30dba931461060e578063f637731d146106e257600080fd5b8063c45a015514610542578063d0c93a7c14610569578063d21220a7146105a357600080fd5b8063883bdbfd116100c8578063883bdbfd146104cd578063a34123a7146104ee578063a38807f21461050157600080fd5b806370cf754a146104805780638206a4d1146104a757806385b66729146104ba57600080fd5b80633850c7bd1161015b578063490e6cbc11610135578063490e6cbc146103b95780634f1eb3d8146103cc578063514ea4bf146103df5780635339c2961461046057600080fd5b80633850c7bd146102ea5780633c8a7d8d1461038f57806346141319146103a257600080fd5b80631ad8b03b1161018c5780631ad8b03b1461024a578063252c09d71461028857806332148f67146102d557600080fd5b80630dfe1681146101b3578063128acb08146101f75780631a6865021461021f575b600080fd5b6101da7f000000000000000000000000000000000000000000000000000000000000000081565b6040516001600160a01b0390911681526020015b60405180910390f35b61020a610205366004614e24565b6106f5565b604080519283526020830191909152016101ee565b600454610232906001600160801b031681565b6040516001600160801b0390911681526020016101ee565b600354610268906001600160801b0380821691600160801b90041682565b604080516001600160801b039384168152929091166020830152016101ee565b61029b610296366004614ea9565b61133a565b6040805163ffffffff909516855260069390930b60208501526001600160a01b0390911691830191909152151560608201526080016101ee565b6102e86102e3366004614ec2565b611380565b005b60005461033e906001600160a01b03811690600160a01b810460020b9061ffff600160b81b8204811691600160c81b8104821691600160d81b8204169060ff600160e81b8204811691600160f01b90041687565b604080516001600160a01b03909816885260029690960b602088015261ffff94851695870195909552918316606086015291909116608084015260ff1660a0830152151560c082015260e0016101ee565b61020a61039d366004614f0f565b611479565b6103ab60025481565b6040519081526020016101ee565b6102e86103c7366004614f5d565b6116a6565b6102686103da366004614fc7565b611a5d565b61042a6103ed366004614ea9565b60076020526000908152604090208054600182015460028301546003909301546001600160801b0392831693919281811691600160801b90041685565b604080516001600160801b039687168152602081019590955284019290925283166060830152909116608082015260a0016101ee565b6103ab61046e36600461502e565b60066020526000908152604090205481565b6102327f000000000000000000000000000000000000000000000000000000000000000081565b6102e86104b5366004615062565b611ca1565b6102686104c8366004615095565b611e71565b6104e06104db3660046150da565b612128565b6040516101ee92919061514f565b61020a6104fc3660046151d6565b6121af565b61051461050f366004615202565b612308565b6040805160069490940b84526001600160a01b03909216602084015263ffffffff16908201526060016101ee565b6101da7f000000000000000000000000000000000000000000000000000000000000000081565b6105907f000000000000000000000000000000000000000000000000000000000000000081565b60405160029190910b81526020016101ee565b6101da7f000000000000000000000000000000000000000000000000000000000000000081565b6105f17f000000000000000000000000000000000000000000000000000000000000000081565b60405162ffffff90911681526020016101ee565b6103ab60015481565b61068661061c36600461522c565b60056020526000908152604090208054600182015460028301546003909301546001600160801b03831693600160801b909304600f0b9290600681900b90600160381b81046001600160a01b031690600160d81b810463ffffffff1690600160f81b900460ff1688565b604080516001600160801b039099168952600f9790970b602089015295870194909452606086019290925260060b60808501526001600160a01b031660a084015263ffffffff1660c0830152151560e0820152610100016101ee565b6102e86106f0366004615247565b6124e3565b6000806107006126b0565b8561071d57604051627ffe0360e31b815260040160405180910390fd5b6040805160e0810182526000546001600160a01b0381168252600160a01b810460020b602083015261ffff600160b81b8204811693830193909352600160c81b810483166060830152600160d81b8104909216608082015260ff600160e81b8304811660a0830152600160f01b909204909116151560c082018190526107b6576040516350dfbc4360e11b815260040160405180910390fd5b876108015780600001516001600160a01b0316866001600160a01b03161180156107fc575073fffd8963efd1fc6a506488495d951d5263988d266001600160a01b038716105b610833565b80600001516001600160a01b0316866001600160a01b031610801561083357506401000276a36001600160a01b038716115b6108695760405162461bcd60e51b815260206004820152600360248201526214d41360ea1b604482015260640160405180910390fd5b6000805460ff60f01b191681556040805160c08101909152808a6108985760048460a0015160ff16901c6108a9565b60108460a001516108a9919061527a565b60ff1681526004546001600160801b031660208201526040014263ffffffff168152602001600060060b815260200160006001600160a01b031681526020016000151581525090506000808913905060006040518060e001604052808b81526020016000815260200185600001516001600160a01b03168152602001856020015160020b81526020018c61093f57600254610943565b6001545b815260200160006001600160801b0316815260200184602001516001600160801b031681525090505b8051158015906109925750886001600160a01b031681604001516001600160a01b031614155b15610ed0576040805160e081018252600080825260208201819052918101829052606081018290526080810182905260a0810182905260c081019190915260408201516001600160a01b031681526060820151610a13906006907f00000000000000000000000000000000000000000000000000000000000000008f6126e7565b1515604083015260020b60208201819052620d89e7191315610a3e57620d89e7196020820152610a72565b610a4b620d89e7196152b2565b60020b816020015160020b1315610a7257610a69620d89e7196152b2565b60020b60208201525b610a7f8160200151612829565b6001600160a01b031660608201526040820151610b10908d610ab9578b6001600160a01b031683606001516001600160a01b031611610ad3565b8b6001600160a01b031683606001516001600160a01b0316105b610ae1578260600151610ae3565b8b5b60c085015185517f0000000000000000000000000000000000000000000000000000000000000000612b49565b60c085015260a084015260808301526001600160a01b031660408301528215610b7257610b468160c00151826080015101612d3b565b825103825260a0810151610b5990612d3b565b82602001818151610b6a91906152d5565b905250610bb5565b610b7f8160a00151612d3b565b825101825260c08101516080820151610ba091610b9b91615314565b612d3b565b82602001818151610bb1919061532c565b9052505b835160ff1615610c01576000846000015160ff168260c0015181610bdb57610bdb615264565b60c0840180519290910491829003905260a0840180519091016001600160801b03169052505b60c08201516001600160801b031615610c4057610c348160c00151600160801b8460c001516001600160801b0316612d51565b60808301805190910190525b80606001516001600160a01b031682604001516001600160a01b03161415610e9357806040015115610e6e578360a00151610cc657610ca8846040015160008760200151886040015188602001518a606001516008612e05909695949392919063ffffffff16565b6001600160a01b0316608086015260060b6060850152600160a08501525b6000610e1a82602001518e610cdd57600154610ce3565b84608001515b8f610cf2578560800151610cf6565b6002545b608089015160608a01516040808c0151600296870b6000908152600560205291909120600181018054909603909555948401805490930390925560038301805463ffffffff600160d81b66ffffffffffffff196001600160a01b03600160381b8086048216909703169095029485167fffffffffff00000000000000000000000000000000000000000000000000000084161766ffffffffffffff7fffffffffff0000000000000000000000000000000000000000ffffffffffffff8516871760060b909703969096169586178190048216909703169095027fff00000000ffffffffffffffffffffffffffffffffffffffff00000000000000929092166001600160f81b031990951694909417919091171790915554600160801b9004600f0b90565b90508c15610e26576000035b600081600f0b12610e4657808360c00151610e41919061536c565b610e5e565b610e4f81615397565b8360c00151610e5e91906153b5565b6001600160801b031660c0840152505b8b610e7d578060200151610e86565b60018160200151035b60020b6060830152610eca565b80600001516001600160a01b031682604001516001600160a01b031614610eca57610ec18260400151612fb6565b60020b60608301525b5061096c565b836020015160020b816060015160020b14610fb757600080610f1e86604001518660400151886020015188602001518a606001518b6080015160086132c5909695949392919063ffffffff16565b604085015160608601516000805463ffffffff60b81b1916600160c81b61ffff9586160261ffff60b81b191617600160b81b95909416949094029290921776ffffffffffffffffffffffffffffffffffffffffffffff1916600160a01b62ffffff9093169290920273ffffffffffffffffffffffffffffffffffffffff1916919091176001600160a01b0390911617905550610fe99050565b60408101516000805473ffffffffffffffffffffffffffffffffffffffff19166001600160a01b039092169190911790555b8060c001516001600160801b031683602001516001600160801b03161461102f5760c0810151600480546001600160801b0319166001600160801b039092169190911790555b8a1561107f57608081015160015560a08101516001600160801b03161561107a5760a0810151600380546001600160801b031981166001600160801b03918216909301169190911790555b6110c5565b608081015160025560a08101516001600160801b0316156110c55760a0810151600380546001600160801b03808216600160801b92839004821690940116029190911790555b8115158b1515146110de57602081015181518b036110eb565b80600001518a0381602001515b90965094508a156111cc57600085121561112d5761112d7f00000000000000000000000000000000000000000000000000000000000000008d8760000361344e565b600061113761353a565b60405163fa461e3360e01b8152909150339063fa461e3390611163908a908a908e908e90600401615406565b600060405180830381600087803b15801561117d57600080fd5b505af1158015611191573d6000803e3d6000fd5b5050505061119d61353a565b6111a78883615314565b11156111c657604051635d05ca8f60e11b815260040160405180910390fd5b5061129e565b6000861215611203576112037f00000000000000000000000000000000000000000000000000000000000000008d8860000361344e565b600061120d613650565b60405163fa461e3360e01b8152909150339063fa461e3390611239908a908a908e908e90600401615406565b600060405180830381600087803b15801561125357600080fd5b505af1158015611267573d6000803e3d6000fd5b50505050611273613650565b61127d8783615314565b111561129c57604051635d05ca8f60e11b815260040160405180910390fd5b505b60408082015160c083015160608085015184518b8152602081018b90526001600160a01b03948516958101959095526001600160801b039092169084015260020b60808301528d169033907fc42079f94a6350d7e6235f29174924f928cc2ac818eb64fed8004e115fbcca679060a00160405180910390a350506000805460ff60f01b1916600160f01b17905550919890975095505050505050565b60088161ffff811061134b57600080fd5b015463ffffffff81169150640100000000810460060b90600160581b81046001600160a01b031690600160f81b900460ff1684565b600054600160f01b900460ff166113aa576040516350dfbc4360e11b815260040160405180910390fd5b6000805460ff60f01b191690556113bf6126b0565b60008054600160d81b900461ffff16906113db6008838561369c565b6000805461ffff808416600160d81b81027fffffff0000ffffffffffffffffffffffffffffffffffffffffffffffffffffff90931692909217909255919250831614611461576040805161ffff8085168252831660208201527fac49e518f90a358f652e4400164f05a5d8f7e35e7747279bc3a93dbf584e125a91015b60405180910390a15b50506000805460ff60f01b1916600160f01b17905550565b600080548190600160f01b900460ff166114a6576040516350dfbc4360e11b815260040160405180910390fd5b6000805460ff60f01b191690556001600160801b0385166114c657600080fd5b60008061151460405180608001604052808c6001600160a01b031681526020018b60020b81526020018a60020b815260200161150a8a6001600160801b031661372d565b600f0b9052613743565b925092505081935080925060008060008611156115365761153361353a565b91505b841561154757611544613650565b90505b60405163d348799760e01b8152339063d34879979061157090899089908d908d90600401615406565b600060405180830381600087803b15801561158a57600080fd5b505af115801561159e573d6000803e3d6000fd5b505050506000861180156115c157506115b561353a565b6115bf8784615314565b115b156115df5760405163748800af60e01b815260040160405180910390fd5b6000851180156115fe57506115f2613650565b6115fc8683615314565b115b1561161c57604051631072b39760e11b815260040160405180910390fd5b604080513381526001600160801b038b1660208201529081018790526060810186905260028b810b91908d900b906001600160a01b038f16907f7a53080ba414158be7ec69b987b5fb7d07dee101fe85488f0853ae16239d0bde9060800160405180910390a450506000805460ff60f01b1916600160f01b17905550919890975095505050505050565b600054600160f01b900460ff166116d0576040516350dfbc4360e11b815260040160405180910390fd5b6000805460ff60f01b191690556116e56126b0565b6004546001600160801b03168061170f57604051639f13f76d60e01b815260040160405180910390fd5b6000611744867f000000000000000000000000000000000000000000000000000000000000000062ffffff16620f42406139a5565b9050600061177b867f000000000000000000000000000000000000000000000000000000000000000062ffffff16620f42406139a5565b9050600061178761353a565b90506000611793613650565b905088156117c6576117c67f00000000000000000000000000000000000000000000000000000000000000008b8b61344e565b87156117f7576117f77f00000000000000000000000000000000000000000000000000000000000000008b8a61344e565b604051630e9cbafb60e41b8152339063e9cbafb09061182090879087908c908c90600401615406565b600060405180830381600087803b15801561183a57600080fd5b505af115801561184e573d6000803e3d6000fd5b50505050600061185c61353a565b90506000611868613650565b9050816118758786615314565b11156118945760405163f704e89960e01b815260040160405180910390fd5b8061189f8685615314565b11156118be5760405163e90c349360e01b815260040160405180910390fd5b8382038382038386146119545760008054600160e81b9004600f169081156118f8578160ff1684816118f2576118f2615264565b046118fb565b60005b90506001600160801b0381161561192e57600380546001600160801b038082168401166001600160801b03199091161790555b611948818503600160801b8d6001600160801b0316612d51565b60018054909101905550505b80156119e55760008054600160e81b900460041c600f1690811561198a578160ff16838161198457611984615264565b0461198d565b60005b90506001600160801b038116156119bf57600380546001600160801b03600160801b8083048216850182160291161790555b6119d9818403600160801b8d6001600160801b0316612d51565b60028054909101905550505b604080518e8152602081018e9052908101839052606081018290526001600160a01b038f169033907fbdbdb71d7860376ba52b25a5028beea23581364a40522f6bcfb86bb1f2dca6339060800160405180910390a350506000805460ff60f01b1916600160f01b179055505050505050505050505050565b600080548190600160f01b900460ff16611a8a576040516350dfbc4360e11b815260040160405180910390fd5b6000805460ff60f01b19168155604080513360601b6bffffffffffffffffffffffff191660208083019190915260e88a811b603484015289901b60378301528251601a818403018152603a9092018352815191810191909120835260079052902060038101546001600160801b0390811690861611611b095784611b18565b60038101546001600160801b03165b60038201549093506001600160801b03600160801b909104811690851611611b405783611b56565b6003810154600160801b90046001600160801b03165b91506001600160801b03831615611bbb576003810180546001600160801b031981166001600160801b03918216869003821617909155611bbb907f0000000000000000000000000000000000000000000000000000000000000000908a90861661344e565b6001600160801b03821615611c21576003810180546001600160801b03600160801b808304821686900382160291811691909117909155611c21907f0000000000000000000000000000000000000000000000000000000000000000908a90851661344e565b604080516001600160a01b038a1681526001600160801b0385811660208301528416818301529051600288810b92908a900b9133917f70935338e69775456a85ddef226c395fb668b63fa0115f5f20610b388e6ca9c0919081900360600190a4506000805460ff60f01b1916600160f01b17905590969095509350505050565b600054600160f01b900460ff16611ccb576040516350dfbc4360e11b815260040160405180910390fd5b6000805460ff60f01b1916905560408051638da5cb5b60e01b815290516001600160a01b037f00000000000000000000000000000000000000000000000000000000000000001691638da5cb5b9160048083019260209291908290030181865afa158015611d3d573d6000803e3d6000fd5b505050506040513d601f19601f82011682018060405250810190611d619190615430565b6001600160a01b0316336001600160a01b031614611d7e57600080fd5b60ff82161580611da1575060048260ff1610158015611da15750600a8260ff1611155b8015611dcb575060ff81161580611dcb575060048160ff1610158015611dcb5750600a8160ff1611155b611dd457600080fd5b60008054610ff0600484901b16840160ff908116600160e81b9081027fffff00ffffffffffffffffffffffffffffffffffffffffffffffffffffffffff841617909355919004167f973d8d92bb299f4af6ce49b52a8adb85ae46b9f214c4c4fc06ac77401237b1336010826040805160ff9390920683168252600f600486901c166020830152868316908201529084166060820152608001611458565b600080548190600160f01b900460ff16611e9e576040516350dfbc4360e11b815260040160405180910390fd5b6000805460ff60f01b1916905560408051638da5cb5b60e01b815290516001600160a01b037f00000000000000000000000000000000000000000000000000000000000000001691638da5cb5b9160048083019260209291908290030181865afa158015611f10573d6000803e3d6000fd5b505050506040513d601f19601f82011682018060405250810190611f349190615430565b6001600160a01b0316336001600160a01b031614611f5157600080fd5b6003546001600160801b0390811690851611611f6d5783611f7a565b6003546001600160801b03165b6003549092506001600160801b03600160801b909104811690841611611fa05782611fb4565b600354600160801b90046001600160801b03165b90506001600160801b03821615612035576003546001600160801b0383811691161415611fe357600019909101905b600380546001600160801b031981166001600160801b03918216859003821617909155612035907f0000000000000000000000000000000000000000000000000000000000000000908790851661344e565b6001600160801b038116156120bb576003546001600160801b03828116600160801b90920416141561206657600019015b600380546001600160801b03600160801b8083048216859003821602918116919091179091556120bb907f0000000000000000000000000000000000000000000000000000000000000000908790841661344e565b604080516001600160801b038085168252831660208201526001600160a01b0387169133917f596b573906218d3411850b26a6b437d6c4522fdb43d2d2386263f86d50b8b151910160405180910390a36000805460ff60f01b1916600160f01b1790559094909350915050565b6060806121336126b0565b6121a342858580806020026020016040519081016040528093929190818152602001838360200280828437600092018290525054600454600896959450600160a01b820460020b935061ffff600160b81b8304811693506001600160801b0390911691600160c81b9004166139e5565b915091505b9250929050565b600080548190600160f01b900460ff166121dc576040516350dfbc4360e11b815260040160405180910390fd5b6000805460ff60f01b1916815560408051608081018252338152600288810b602083015287900b918101919091528190819061223590606081016122286001600160801b038a1661372d565b600003600f0b9052613743565b92509250925081600003945080600003935060008511806122565750600084115b15612291576003830180546001600160801b0380821688018116600160801b92839004821688019091169091026001600160801b0319161790555b604080516001600160801b038816815260208101879052908101859052600288810b91908a900b9033907f0c396cd989a39f4459b5fa1aed6a9a8dcdbc45908acfd67e028cd568da98982c9060600160405180910390a450506000805460ff60f01b1916600160f01b179055509094909350915050565b60008060006123156126b0565b61231f8585613b30565b600285810b6000908152600560205260408082209287900b825281206003830154600681900b93600160381b82046001600160a01b0316928492600160d81b810463ffffffff169284929091600160f81b900460ff168061237f57600080fd5b6003820154600681900b9850600160381b81046001600160a01b03169650600160d81b810463ffffffff169450600160f81b900460ff16806123c057600080fd5b50506040805160e0810182526000546001600160a01b0381168252600160a01b8104600290810b6020840181905261ffff600160b81b8404811695850195909552600160c81b830485166060850152600160d81b8304909416608084015260ff600160e81b8304811660a0850152600160f01b909204909116151560c08301529093508e900b13159050612462575093909403965090039350900390506124dc565b8a60020b816020015160020b12156124cd57602081015160408201516004546060840151429360009384936124ab9360089388938793919290916001600160801b031690612e05565b9a9003989098039b5050949096039290920396509091030392506124dc915050565b50949093039650039350900390505b9250925092565b6000546001600160a01b03161561250d5760405163139816ff60e31b815260040160405180910390fd5b600061251882612fb6565b604080516080808201835263ffffffff42168083526000602080850182905284860182905260016060958601819052600160f81b909317600855855160e0810187526001600160a01b038a16808252600289900b82840181905282890185905296820185905294810184905260a0810183905260c001839052815476ffffffffffffffffffffffffffffffffffffffffffffff19168417600160a01b62ffffff891602177fff0000000000000000ffffffffffffffffffffffffffffffffffffffffffffff166501000001000160c81b1790915584519283528201929092528251939450909283927f98636036cb66a9c19a37435efc1e90142190214e8abeb821bdba3f2990dd4c95928290030190a150505050565b60008082600281900b620d89e7198161264957612649615264565b05029050600083600281900b620d89e88161266657612666615264565b0502905060008460020b83830360020b8161268357612683615264565b0560010190508062ffffff166001600160801b038016816126a6576126a6615264565b0495945050505050565b306001600160a01b037f000000000000000000000000000000000000000000000000000000000000000016146126e557600080fd5b565b60008060008460020b8660020b8161270157612701615264565b05905060008660020b12801561272e57508460020b8660020b8161272757612727615264565b0760020b15155b1561273857600019015b83156127ac57600281900b600881901d600181810b600090815260208b9052604090205461010090930760ff81169190911b8001600019019283168015159550919290918561278e57888360ff168603026127a1565b8861279882613bb6565b840360ff168603025b96505050505061281f565b600181810160020b600881901d80830b600090815260208b9052604090205461010090920760ff81169390931b60001901199182168015159550909291908561280257888360ff0360ff16866001010102612818565b888361280d83613c56565b0360ff168660010101025b9650505050505b5094509492505050565b60008060008360020b12612840578260020b612848565b8260020b6000035b9050620d89e881111561286e576040516315e4079d60e11b815260040160405180910390fd5b60006001821661288257600160801b612894565b6ffffcb933bd6fad37aa2d162d1a5940015b70ffffffffffffffffffffffffffffffffff16905060028216156128c8576ffff97272373d413259a46990580e213a0260801c5b60048216156128e7576ffff2e50f5f656932ef12357cf3c7fdcc0260801c5b6008821615612906576fffe5caca7e10e4e61c3624eaa0941cd00260801c5b6010821615612925576fffcb9843d60f6159c9db58835c9266440260801c5b6020821615612944576fff973b41fa98c081472e6896dfb254c00260801c5b6040821615612963576fff2ea16466c96a3843ec78b326b528610260801c5b6080821615612982576ffe5dee046a99a2a811c461f1969c30530260801c5b6101008216156129a2576ffcbe86c7900a88aedcffc83b479aa3a40260801c5b6102008216156129c2576ff987a7253ac413176f2b074cf7815e540260801c5b6104008216156129e2576ff3392b0822b70005940c7a398e4b70f30260801c5b610800821615612a02576fe7159475a2c29b7443b29c7fa6e889d90260801c5b611000821615612a22576fd097f3bdfd2022b8845ad8f792aa58250260801c5b612000821615612a42576fa9f746462d870fdf8a65dc1f90e061e50260801c5b614000821615612a62576f70d869a156d2a1b890bb3df62baf32f70260801c5b618000821615612a82576f31be135f97d08fd981231505542fcfa60260801c5b62010000821615612aa3576f09aa508b5b7a84e1c677de54f3e99bc90260801c5b62020000821615612ac3576e5d6af8dedb81196699c329225ee6040260801c5b62040000821615612ae2576d2216e584f5fa1ea926041bedfe980260801c5b62080000821615612aff576b048a170391f7dc42444e8fa20260801c5b60008460020b1315612b20578060001981612b1c57612b1c615264565b0490505b640100000000810615612b34576001612b37565b60005b60ff16602082901c0192505050919050565b60008080806001600160a01b03808916908a161015818712801590612bce576000612b828989620f42400362ffffff16620f4240612d51565b905082612b9b57612b968c8c8c6001613d40565b612ba8565b612ba88b8d8c6001613dbb565b9550858110612bb9578a9650612bc8565b612bc58c8b8386613e84565b96505b50612c18565b81612be557612be08b8b8b6000613dbb565b612bf2565b612bf28a8c8b6000613d40565b9350838860000310612c0657899550612c18565b612c158b8a8a60000385613ed0565b95505b6001600160a01b038a8116908716148215612c7b57808015612c375750815b612c4d57612c48878d8c6001613dbb565b612c4f565b855b9550808015612c5c575081155b612c7257612c6d878d8c6000613d40565b612c74565b845b9450612cc5565b808015612c855750815b612c9b57612c968c888c6001613d40565b612c9d565b855b9550808015612caa575081155b612cc057612cbb8c888c6000613dbb565b612cc2565b845b94505b81158015612cd557508860000385115b15612ce1578860000394505b818015612d0057508a6001600160a01b0316876001600160a01b031614155b15612d0f578589039350612d2c565b612d29868962ffffff168a620f42400362ffffff166139a5565b93505b50505095509550955095915050565b6000600160ff1b8210612d4d57600080fd5b5090565b600080806000198587098587029250828110838203039150508060001415612d8b5760008411612d8057600080fd5b508290049050612dfe565b808411612d9757600080fd5b6000848688096000868103871696879004966002600389028118808a02820302808a02820302808a02820302808a02820302808a02820302808a02909103029181900381900460010186841190950394909402919094039290920491909117919091029150505b9392505050565b60008063ffffffff8716612eac576000898661ffff1661ffff8110612e2c57612e2c61544d565b60408051608081018252919092015463ffffffff808216808452640100000000830460060b6020850152600160581b83046001600160a01b031694840194909452600160f81b90910460ff16151560608301529092508a1614612e9857612e95818a8988613f1c565b90505b806020015181604001519250925050612faa565b868803600080612ec18c8c858c8c8c8c613fee565b91509150816000015163ffffffff168363ffffffff161415612ef3578160200151826040015194509450505050612faa565b805163ffffffff84811691161415612f1b578060200151816040015194509450505050612faa565b60008260000151826000015103905060008360000151850390508063ffffffff168263ffffffff1660060b856020015185602001510360060b81612f6157612f61615264565b05028460200151018263ffffffff168263ffffffff1686604001518660400151036001600160a01b03160281612f9957612f99615264565b048560400151019650965050505050505b97509795505050505050565b60006401000276a36001600160a01b03831610801590612ff2575073fffd8963efd1fc6a506488495d951d5263988d266001600160a01b038316105b61300f576040516324c070df60e11b815260040160405180910390fd5b77ffffffffffffffffffffffffffffffffffffffff00000000602083901b166001600160801b03811160071b81811c67ffffffffffffffff811160061b90811c63ffffffff811160051b90811c61ffff811160041b90811c60ff8111600390811b91821c600f811160021b90811c918211600190811b92831c979088119617909417909217179091171717608081106130b057607f810383901c91506130ba565b80607f0383901b91505b908002607f81811c60ff83811c9190911c800280831c81831c1c800280841c81841c1c800280851c81851c1c800280861c81861c1c800280871c81871c1c800280881c81881c1c800280891c81891c1c8002808a1c818a1c1c8002808b1c818b1c1c8002808c1c818c1c1c8002808d1c818d1c1c8002808e1c9c81901c9c909c1c80029c8d901c9e9d607f198f0160401b60c09190911c678000000000000000161760c19b909b1c674000000000000000169a909a1760c29990991c672000000000000000169890981760c39790971c671000000000000000169690961760c49590951c670800000000000000169490941760c59390931c670400000000000000169290921760c69190911c670200000000000000161760c79190911c600160381b161760c89190911c6680000000000000161760c99190911c6640000000000000161760ca9190911c6620000000000000161760cb9190911c6610000000000000161760cc9190911c6608000000000000161760cd9190911c66040000000000001617693627a301d71055774c8581026f028f6481ab7f045a5af012a19d003aa9198101608090811d906fdb2df09e81959a81455e260799a0632f8301901d600281810b9083900b146132b657886001600160a01b031661329b82612829565b6001600160a01b031611156132b057816132b8565b806132b8565b815b9998505050505050505050565b6000806000898961ffff1661ffff81106132e1576132e161544d565b60408051608081018252919092015463ffffffff808216808452640100000000830460060b6020850152600160581b83046001600160a01b031694840194909452600160f81b90910460ff16151560608301529092508916141561334b5788859250925050612faa565b8461ffff168461ffff1611801561336c57506001850361ffff168961ffff16145b156133795783915061337d565b8491505b8161ffff168960010161ffff168161339757613397615264565b0692506133a681898989613f1c565b8a8461ffff1661ffff81106133bd576133bd61544d565b825191018054602084015160408501516060909501511515600160f81b026001600160f81b036001600160a01b03909616600160581b02959095166affffffffffffffffffffff66ffffffffffffff909216640100000000026affffffffffffffffffffff1990931663ffffffff909516949094179190911716919091179190911790555097509795505050505050565b604080516001600160a01b038481166024830152604480830185905283518084039091018152606490920183526020820180516001600160e01b031663a9059cbb60e01b17905291516000928392908716916134aa9190615463565b6000604051808303816000865af19150503d80600081146134e7576040519150601f19603f3d011682016040523d82523d6000602084013e6134ec565b606091505b5091509150818015613516575080511580613516575080806020019051810190613516919061549e565b61353357604051638b98626560e01b815260040160405180910390fd5b5050505050565b604051306024820152600090819081906001600160a01b037f000000000000000000000000000000000000000000000000000000000000000016906370a0823160e01b906044015b60408051601f198184030181529181526020820180516001600160e01b03167fffffffff000000000000000000000000000000000000000000000000000000009094169390931790925290516135d89190615463565b600060405180830381855afa9150503d8060008114613613576040519150601f19603f3d011682016040523d82523d6000602084013e613618565b606091505b509150915081801561362c57506020815110155b61363557600080fd5b8080602001905181019061364991906154bb565b9250505090565b604051306024820152600090819081906001600160a01b037f000000000000000000000000000000000000000000000000000000000000000016906370a0823160e01b90604401613582565b6000808361ffff16116136c257604051636b93000360e11b815260040160405180910390fd5b8261ffff168261ffff16116136d8575081612dfe565b825b8261ffff168161ffff161015613724576001858261ffff1661ffff81106137035761370361544d565b01805463ffffffff191663ffffffff929092169190911790556001016136da565b50909392505050565b80600f81900b811461373e57600080fd5b919050565b60008060006137506126b0565b61376284602001518560400151613b30565b6040805160e0810182526000546001600160a01b0381168252600160a01b810460020b602080840182905261ffff600160b81b8404811685870152600160c81b84048116606080870191909152600160d81b8504909116608086015260ff600160e81b8504811660a0870152600160f01b909404909316151560c0850152885190890151948901519289015193946138009491939092909190614209565b93508460600151600f0b60001461399d57846020015160020b816020015160020b12156138555761384e6138378660200151612829565b6138448760400151612829565b8760600151614439565b925061399d565b846040015160020b816020015160020b12156139735760045460408201516001600160801b03909116906138a0904260208501516060860151608087015160089493929187916132c5565b6000805463ffffffff60b81b1916600160c81b61ffff9384160261ffff60b81b191617600160b81b9390921692909202179055815160408701516138f291906138e890612829565b8860600151614439565b93506139106139048760200151612829565b83516060890151614478565b925060008660600151600f0b12613935576060860151613930908261536c565b61394d565b856060015161394390615397565b61394d90826153b5565b600480546001600160801b0319166001600160801b03929092169190911790555061399d565b61399a6139838660200151612829565b6139908760400151612829565b8760600151614478565b91505b509193909250565b60006139b2848484612d51565b9050600082806139c4576139c4615264565b8486091115612dfe5760001981106139db57600080fd5b6001019392505050565b60608060008361ffff1611613a0d57604051636b93000360e11b815260040160405180910390fd5b865167ffffffffffffffff811115613a2757613a276154d4565b604051908082528060200260200182016040528015613a50578160200160208202803683370190505b509150865167ffffffffffffffff811115613a6d57613a6d6154d4565b604051908082528060200260200182016040528015613a96578160200160208202803683370190505b50905060005b8751811015613b2357613acd8a8a8a8481518110613abc57613abc61544d565b60200260200101518a8a8a8a612e05565b848381518110613adf57613adf61544d565b60200260200101848481518110613af857613af861544d565b6001600160a01b039093166020938402919091019092019190915260069190910b9052600101613a9c565b5097509795505050505050565b8060020b8260020b12613b5657604051632fe0284f60e01b815260040160405180910390fd5b620d89e719600283900b1215613b7f5760405163135ac25d60e31b815260040160405180910390fd5b613b8c620d89e7196152b2565b60020b8160020b1315613bb25760405163d7b54ab160e01b815260040160405180910390fd5b5050565b6000808211613bc457600080fd5b600160801b8210613bd757608091821c91015b680100000000000000008210613bef57604091821c91015b6401000000008210613c0357602091821c91015b620100008210613c1557601091821c91015b6101008210613c2657600891821c91015b60108210613c3657600491821c91015b60048210613c4657600291821c91015b6002821061373e57600101919050565b6000808211613c6457600080fd5b5060ff6001600160801b03821615613c7f57607f1901613c87565b608082901c91505b67ffffffffffffffff821615613ca057603f1901613ca8565b604082901c91505b63ffffffff821615613cbd57601f1901613cc5565b602082901c91505b61ffff821615613cd857600f1901613ce0565b601082901c91505b60ff821615613cf25760071901613cfa565b600882901c91505b600f821615613d0c5760031901613d14565b600482901c91505b6003821615613d265760011901613d2e565b600282901c91505b600182161561373e5760001901919050565b6000836001600160a01b0316856001600160a01b03161115613d60579293925b81613d8d57613d88836001600160801b03168686036001600160a01b0316600160601b612d51565b613db0565b613db0836001600160801b03168686036001600160a01b0316600160601b6139a5565b90505b949350505050565b6000836001600160a01b0316856001600160a01b03161115613ddb579293925b7bffffffffffffffffffffffffffffffff000000000000000000000000606084901b166001600160a01b038686038116908716613e1757600080fd5b83613e4d57866001600160a01b0316613e3a8383896001600160a01b0316612d51565b81613e4757613e47615264565b04613e79565b613e79613e648383896001600160a01b03166139a5565b886001600160a01b0316808204910615150190565b979650505050505050565b600080856001600160a01b031611613e9b57600080fd5b6000846001600160801b031611613eb157600080fd5b81613ec357613d8885858560016144a7565b613db0858585600161458d565b600080856001600160a01b031611613ee757600080fd5b6000846001600160801b031611613efd57600080fd5b81613f0f57613d88858585600061458d565b613db085858560006144a7565b604080516080810182526000808252602082018190529181018290526060810191909152600085600001518503905060405180608001604052808663ffffffff1681526020018263ffffffff168660020b0288602001510160060b81526020016000856001600160801b031611613f94576001613f96565b845b6001600160801b031673ffffffff00000000000000000000000000000000608085901b1681613fc757613fc7615264565b048860400151016001600160a01b0316815260200160011515815250915050949350505050565b604080516080810182526000808252602082018190529181018290526060810191909152604080516080810182526000808252602082018190529181018290526060810191909152888561ffff1661ffff811061404d5761404d61544d565b60408051608081018252919092015463ffffffff8116808352640100000000820460060b6020840152600160581b82046001600160a01b031693830193909352600160f81b900460ff161515606082015292506140ac9089908961468d565b156140e4578663ffffffff16826000015163ffffffff1614156140ce57612faa565b816140db83898988613f1c565b91509150612faa565b888361ffff168660010161ffff16816140ff576140ff615264565b0661ffff1661ffff81106141155761411561544d565b60408051608081018252929091015463ffffffff81168352640100000000810460060b60208401526001600160a01b03600160581b8204169183019190915260ff600160f81b909104161515606082018190529092506141c057604080516080810182528a5463ffffffff81168252640100000000810460060b6020830152600160581b81046001600160a01b031692820192909252600160f81b90910460ff161515606082015291505b6141cf8883600001518961468d565b6141ec576040516327e8e87560e01b815260040160405180910390fd5b6141f98989898887614750565b9150915097509795505050505050565b604080516bffffffffffffffffffffffff19606088901b1660208083019190915260e887811b603484015286901b60378301528251808303601a018152603a90920183528151918101919091206000908152600790915290812060015460025491925090600080600f87900b1561439b576000805460045442929182916142c09160089186918591600160a01b820460020b9161ffff600160b81b82048116926001600160801b031691600160c81b900416612e05565b90925090506142fa60058d8b8d8b8b87898b60007f000000000000000000000000000000000000000000000000000000000000000061493a565b945061433160058c8b8d8b8b87898b60017f000000000000000000000000000000000000000000000000000000000000000061493a565b935084156143655761436560068d7f0000000000000000000000000000000000000000000000000000000000000000614ae5565b83156143975761439760068c7f0000000000000000000000000000000000000000000000000000000000000000614ae5565b5050505b6000806143ad60058c8c8b8a8a614b62565b90925090506143be878a8484614c09565b600089600f0b121561442a5783156143fa5760028b810b6000908152600560205260408120818155600181018290559182018190556003909101555b821561442a5760028a810b6000908152600560205260408120818155600181018290559182018190556003909101555b50505050505095945050505050565b60008082600f0b1261445a57614455610b9b8585856001613dbb565b613db3565b61446d610b9b8585856000036000613dbb565b600003949350505050565b60008082600f0b1261449457614455610b9b8585856001613d40565b61446d610b9b8585856000036000613d40565b600081156145195760006001600160a01b038411156144dd576144d884600160601b876001600160801b0316612d51565b6144f4565b6144f46001600160801b038616606086901b6154ea565b905061451161450c826001600160a01b038916615314565b614da6565b915050613db3565b60006001600160a01b038411156145475761454284600160601b876001600160801b03166139a5565b614564565b614564606085901b6001600160801b038716808204910615150190565b905080866001600160a01b03161161457b57600080fd5b6001600160a01b038616039050613db3565b60008261459b575083613db3565b7bffffffffffffffffffffffffffffffff000000000000000000000000606085901b168215614640576001600160a01b038616848102908582816145e1576145e1615264565b041415614612578181018281106146105761460683896001600160a01b0316836139a5565b9350505050613db3565b505b50614511818561462b6001600160a01b038a16836154ea565b6146359190615314565b808204910615150190565b6001600160a01b0386168481029085828161465d5761465d615264565b0414801561466a57508082115b61467357600080fd5b80820361460661450c846001600160a01b038b16846139a5565b60008363ffffffff168363ffffffff16111580156146b757508363ffffffff168263ffffffff1611155b156146d3578163ffffffff168363ffffffff1611159050612dfe565b60008463ffffffff168463ffffffff16116146fb578363ffffffff1664010000000001614703565b8363ffffffff165b64ffffffffff16905060008563ffffffff168463ffffffff1611614734578363ffffffff166401000000000161473c565b8363ffffffff165b64ffffffffff169091111595945050505050565b60408051608081018252600080825260208201819052918101829052606081019190915260408051608081018252600080825260208201819052918101829052606081019190915260008361ffff168560010161ffff16816147b4576147b4615264565b0661ffff169050600060018561ffff16830103905060005b506002818301048961ffff871682816147e7576147e7615264565b0661ffff81106147f9576147f961544d565b60408051608081018252929091015463ffffffff81168352640100000000810460060b60208401526001600160a01b03600160581b8204169183019190915260ff600160f81b9091041615156060820181905290955061485e578060010192506147cc565b898661ffff16826001018161487557614875615264565b0661ffff81106148875761488761544d565b60408051608081018252929091015463ffffffff81168352640100000000810460060b60208401526001600160a01b03600160581b8204169183019190915260ff600160f81b909104161515606082015285519094506000906148ec908b908b61468d565b905080801561490557506149058a8a876000015161468d565b15614910575061492d565b8061492057600182039250614927565b8160010193505b506147cc565b5050509550959350505050565b60028a900b600090815260208c90526040812080546001600160801b031682600f8c900b81136149735761496e8c8361536c565b614986565b61497c8c615397565b61498690836153b5565b9050846001600160801b0316816001600160801b031611156149bb576040516368d2be8f60e01b815260040160405180910390fd5b6001600160801b038281161590821615811415945015614a69578c60020b8e60020b13614a5157600183018b9055600283018a905560038301805466ffffffffffffff8a166001600160f81b0319909116600160381b6001600160a01b038d16027fff00000000ffffffffffffffffffffffffffffffffffffffff00000000000000161717600160d81b63ffffffff8a16021790555b6003830180546001600160f81b0316600160f81b1790555b82546001600160801b0319166001600160801b03821617835585614aa3578254614a9e908d90600160801b9004600f0b6154fe565b614aba565b8254614aba908d90600160801b9004600f0b61554d565b83546001600160801b03918216600160801b0291161790925550909c9b505050505050505050505050565b8060020b8260020b81614afa57614afa615264565b0760020b15614b0857600080fd5b600080614b368360020b8560020b81614b2357614b23615264565b0560020b600881901d9161010090910790565b600191820b60009081526020979097526040909620805460ff9097169190911b90951890945550505050565b600285810b60008181526020899052604080822088850b83529082209193849391929184918291908a900b12614ba357505060018201546002830154614bb6565b8360010154880391508360020154870390505b6000808b60020b8b60020b1215614bd857505060018301546002840154614beb565b84600101548a0391508460020154890390505b92909803979097039b96909503949094039850939650505050505050565b6040805160a08101825285546001600160801b0390811682526001870154602083015260028701549282019290925260038601548083166060830152600160801b900490911660808201526000600f85900b614c8f5781516001600160801b0316614c8757604051632aabfc9960e11b815260040160405180910390fd5b508051614cc4565b600085600f0b12614cac578151614ca790869061536c565b614cc1565b614cb585615397565b8251614cc191906153b5565b90505b600080614ce98460200151870385600001516001600160801b0316600160801b612d51565b9150614d0d8460400151860385600001516001600160801b0316600160801b612d51565b905086600f0b600014614d345787546001600160801b0319166001600160801b0384161788555b60018801869055600288018590556001600160801b038216151580614d6257506000816001600160801b0316115b15614d9c57600388018054600160801b6001600160801b03808316860181166001600160801b031990931683178290048116850116021790555b5050505050505050565b806001600160a01b038116811461373e57600080fd5b6001600160a01b0381168114614dd157600080fd5b50565b8015158114614dd157600080fd5b60008083601f840112614df457600080fd5b50813567ffffffffffffffff811115614e0c57600080fd5b6020830191508360208285010111156121a857600080fd5b60008060008060008060a08789031215614e3d57600080fd5b8635614e4881614dbc565b95506020870135614e5881614dd4565b9450604087013593506060870135614e6f81614dbc565b9250608087013567ffffffffffffffff811115614e8b57600080fd5b614e9789828a01614de2565b979a9699509497509295939492505050565b600060208284031215614ebb57600080fd5b5035919050565b600060208284031215614ed457600080fd5b813561ffff81168114612dfe57600080fd5b8035600281900b811461373e57600080fd5b80356001600160801b038116811461373e57600080fd5b60008060008060008060a08789031215614f2857600080fd5b8635614f3381614dbc565b9550614f4160208801614ee6565b9450614f4f60408801614ee6565b9350614e6f60608801614ef8565b600080600080600060808688031215614f7557600080fd5b8535614f8081614dbc565b94506020860135935060408601359250606086013567ffffffffffffffff811115614faa57600080fd5b614fb688828901614de2565b969995985093965092949392505050565b600080600080600060a08688031215614fdf57600080fd5b8535614fea81614dbc565b9450614ff860208701614ee6565b935061500660408701614ee6565b925061501460608701614ef8565b915061502260808701614ef8565b90509295509295909350565b60006020828403121561504057600080fd5b81358060010b8114612dfe57600080fd5b803560ff8116811461373e57600080fd5b6000806040838503121561507557600080fd5b61507e83615051565b915061508c60208401615051565b90509250929050565b6000806000606084860312156150aa57600080fd5b83356150b581614dbc565b92506150c360208501614ef8565b91506150d160408501614ef8565b90509250925092565b600080602083850312156150ed57600080fd5b823567ffffffffffffffff8082111561510557600080fd5b818501915085601f83011261511957600080fd5b81358181111561512857600080fd5b8660208260051b850101111561513d57600080fd5b60209290920196919550909350505050565b604080825283519082018190526000906020906060840190828701845b8281101561518b57815160060b8452928401929084019060010161516c565b5050508381038285015284518082528583019183019060005b818110156151c95783516001600160a01b0316835292840192918401916001016151a4565b5090979650505050505050565b6000806000606084860312156151eb57600080fd5b6151f484614ee6565b92506150c360208501614ee6565b6000806040838503121561521557600080fd5b61521e83614ee6565b915061508c60208401614ee6565b60006020828403121561523e57600080fd5b612dfe82614ee6565b60006020828403121561525957600080fd5b8135612dfe81614dbc565b634e487b7160e01b600052601260045260246000fd5b600060ff83168061528d5761528d615264565b8060ff84160691505092915050565b634e487b7160e01b600052601160045260246000fd5b60008160020b627fffff198114156152cc576152cc61529c565b60000392915050565b60008083128015600160ff1b8501841216156152f3576152f361529c565b836001600160ff1b0301831381161561530e5761530e61529c565b50500390565b600082198211156153275761532761529c565b500190565b6000808212826001600160ff1b030384138115161561534d5761534d61529c565b600160ff1b83900384128116156153665761536661529c565b50500190565b60006001600160801b0380831681851680830382111561538e5761538e61529c565b01949350505050565b600081600f0b60016001607f1b03198114156152cc576152cc61529c565b60006001600160801b03838116908316818110156153d5576153d561529c565b039392505050565b81835281816020850137506000828201602090810191909152601f909101601f19169091010190565b8481528360208201526060604082015260006154266060830184866153dd565b9695505050505050565b60006020828403121561544257600080fd5b8151612dfe81614dbc565b634e487b7160e01b600052603260045260246000fd5b6000825160005b81811015615484576020818601810151858301520161546a565b81811115615493576000828501525b509190910192915050565b6000602082840312156154b057600080fd5b8151612dfe81614dd4565b6000602082840312156154cd57600080fd5b5051919050565b634e487b7160e01b600052604160045260246000fd5b6000826154f9576154f9615264565b500490565b600081600f0b83600f0b600082128260016001607f1b03038213811516156155285761552861529c565b8260016001607f1b03190382128116156155445761554461529c565b50019392505050565b600081600f0b83600f0b600081128160016001607f1b0319018312811516156155785761557861529c565b8160016001607f1b030183138116156155935761559361529c565b509003939250505056fea164736f6c634300080c000aa164736f6c634300080c000ac66a3fdf07232cdd185febcc6579d408c241b47ae2f9907d84be655141eeaecc",
  "devdoc": {
    "kind": "dev",
    "methods": {
      "createPool(address,address,uint24)": {
        "details": "tokenA and tokenB may be passed in either order: token0/token1 or token1/token0. tickSpacing is retrieved from the fee. The call will revert if the pool already exists, the fee is invalid, or the token arguments are invalid.",
        "params": {
          "fee": "The desired fee for the pool",
          "tokenA": "One of the two tokens in the desired pool",
          "tokenB": "The other of the two tokens in the desired pool"
        },
        "returns": {
          "pool": "The address of the newly created pool"
        }
      },
      "enableFeeAmount(uint24,int24)": {
        "details": "Fee amounts may never be removed once enabled",
        "params": {
          "fee": "The fee amount to enable, denominated in hundredths of a bip (i.e. 1e-6)",
          "tickSpacing": "The spacing between ticks to be enforced for all pools created with the given fee amount"
        }
      },
      "setOwner(address)": {
        "details": "Must be called by the current owner",
        "params": {
          "_owner": "The new owner of the factory"
        }
      }
    },
    "stateVariables": {
      "feeAmountTickSpacing": {
        "details": "A fee amount can never be removed, so this value should be hard coded or cached in the calling context",
        "params": {
          "fee": "The enabled fee, denominated in hundredths of a bip. Returns 0 in case of unenabled fee"
        },
        "return": "The tick spacing",
        "returns": {
          "_0": "The tick spacing"
        }
      },
      "getPool": {
        "details": "tokenA and tokenB may be passed in either token0/token1 or token1/token0 order",
        "params": {
          "fee": "The fee collected upon every swap in the pool, denominated in hundredths of a bip",
          "tokenA": "The contract address of either token0 or token1",
          "tokenB": "The contract address of the other token"
        },
        "return": "The pool address",
        "returns": {
          "_0": "The pool address"
        }
      },
      "owner": {
        "details": "Can be changed by the current owner via setOwner",
        "return": "The address of the factory owner",
        "returns": {
          "_0": "The address of the factory owner"
        }
      }
    },
    "title": "Canonical Uniswap V3 factory",
    "version": 1
  },
  "userdoc": {
    "events": {
      "FeeAmountEnabled(uint24,int24)": {
        "notice": "Emitted when a new fee amount is enabled for pool creation via the factory"
      },
      "OwnerChanged(address,address)": {
        "notice": "Emitted when the owner of the factory is changed"
      },
      "PoolCreated(address,address,uint24,int24,address)": {
        "notice": "Emitted when a pool is created"
      }
    },
    "kind": "user",
    "methods": {
      "createPool(address,address,uint24)": {
        "notice": "Creates a pool for the given two tokens and fee"
      },
      "enableFeeAmount(uint24,int24)": {
        "notice": "Enables a fee amount with the given tickSpacing"
      },
      "feeAmountTickSpacing(uint24)": {
        "notice": "Returns the tick spacing for a given fee amount, if enabled, or 0 if not enabled"
      },
      "getPool(address,address,uint24)": {
        "notice": "Returns the pool address for a given pair of tokens and a fee, or address 0 if it does not exist"
      },
      "owner()": {
        "notice": "Returns the current owner of the factory"
      },
      "parameters()": {
        "notice": "Get the parameters to be used in constructing the pool, set transiently during pool creation."
      },
      "setOwner(address)": {
        "notice": "Updates the owner of the factory"
      }
    },
    "notice": "Deploys Uniswap V3 pools and manages ownership and control over pool protocol fees",
    "version": 1
  },
  "storageLayout": {
    "storage": [
      {
        "astId": 2899,
        "contract": "contracts/UniswapV3Factory.sol:UniswapV3Factory",
        "label": "parameters",
        "offset": 0,
        "slot": "0",
        "type": "t_struct(Parameters)2894_storage"
      },
      {
        "astId": 60,
        "contract": "contracts/UniswapV3Factory.sol:UniswapV3Factory",
        "label": "owner",
        "offset": 0,
        "slot": "3",
        "type": "t_address"
      },
      {
        "astId": 66,
        "contract": "contracts/UniswapV3Factory.sol:UniswapV3Factory",
        "label": "feeAmountTickSpacing",
        "offset": 0,
        "slot": "4",
        "type": "t_mapping(t_uint24,t_int24)"
      },
      {
        "astId": 76,
        "contract": "contracts/UniswapV3Factory.sol:UniswapV3Factory",
        "label": "getPool",
        "offset": 0,
        "slot": "5",
        "type": "t_mapping(t_address,t_mapping(t_address,t_mapping(t_uint24,t_address)))"
      }
    ],
    "types": {
      "t_address": {
        "encoding": "inplace",
        "label": "address",
        "numberOfBytes": "20"
      },
      "t_int24": {
        "encoding": "inplace",
        "label": "int24",
        "numberOfBytes": "3"
      },
      "t_mapping(t_address,t_mapping(t_address,t_mapping(t_uint24,t_address)))": {
        "encoding": "mapping",
        "key": "t_address",
        "label": "mapping(address => mapping(address => mapping(uint24 => address)))",
        "numberOfBytes": "32",
        "value": "t_mapping(t_address,t_mapping(t_uint24,t_address))"
      },
      "t_mapping(t_address,t_mapping(t_uint24,t_address))": {
        "encoding": "mapping",
        "key": "t_address",
        "label": "mapping(address => mapping(uint24 => address))",
        "numberOfBytes": "32",
        "value": "t_mapping(t_uint24,t_address)"
      },
      "t_mapping(t_uint24,t_address)": {
        "encoding": "mapping",
        "key": "t_uint24",
        "label": "mapping(uint24 => address)",
        "numberOfBytes": "32",
        "value": "t_address"
      },
      "t_mapping(t_uint24,t_int24)": {
        "encoding": "mapping",
        "key": "t_uint24",
        "label": "mapping(uint24 => int24)",
        "numberOfBytes": "32",
        "value": "t_int24"
      },
      "t_struct(Parameters)2894_storage": {
        "encoding": "inplace",
        "label": "struct UniswapV3PoolDeployer.Parameters",
        "members": [
          {
            "astId": 2885,
            "contract": "contracts/UniswapV3Factory.sol:UniswapV3Factory",
            "label": "factory",
            "offset": 0,
            "slot": "0",
            "type": "t_address"
          },
          {
            "astId": 2887,
            "contract": "contracts/UniswapV3Factory.sol:UniswapV3Factory",
            "label": "token0",
            "offset": 0,
            "slot": "1",
            "type": "t_address"
          },
          {
            "astId": 2889,
            "contract": "contracts/UniswapV3Factory.sol:UniswapV3Factory",
            "label": "token1",
            "offset": 0,
            "slot": "2",
            "type": "t_address"
          },
          {
            "astId": 2891,
            "contract": "contracts/UniswapV3Factory.sol:UniswapV3Factory",
            "label": "fee",
            "offset": 20,
            "slot": "2",
            "type": "t_uint24"
          },
          {
            "astId": 2893,
            "contract": "contracts/UniswapV3Factory.sol:UniswapV3Factory",
            "label": "tickSpacing",
            "offset": 23,
            "slot": "2",
            "type": "t_int24"
          }
        ],
        "numberOfBytes": "96"
      },
      "t_uint24": {
        "encoding": "inplace",
        "label": "uint24",
        "numberOfBytes": "3"
      }
    }
  }
}